:020000040800F2
:100000008809002045010008432200082720000835
:1000100041220008290500082525000800000000ED
:10002000000000000000000000000000472200085F
:10003000630500080000000045220008492200086E
:100040005F0100085F0100085F0100085F01000810
:100050005F0100085F0100085F0100085F01000800
:100060005F0100085F0100085F0100082D0500081E
:100070005F0100085F0100085F0100085F010008E0
:100080005F0100085F010008ED0300085F01000840
:100090005F0100085F0100085F0100085F010008C0
:1000A0005F0100085F0100085F0100085F010008B0
:1000B000F9220008052300085F0100085F0100081D
:1000C0005F0100085F0100085F0100085F01000890
:1000D0005F0100085F0100085F0100085F01000880
:1000E0005F0100085F0100085F0100085F01000870
:1000F0005F0100085F0100085F0100085F01000860
:100100005F0100085F0100085F0100085F0100084F
:100110005F0100085F0100085F0100085F0100083F
:100120005F0100085F0100085F0100085F0100082F
:10013000DFF80CD000F048F90048004759270008C4
:10014000880900200648804706480047FEE7FEE78A
:10015000FEE7FEE7FEE7FEE7FEE7FEE7FEE7FEE777
:10016000B122000831010008D2B201E000F8012BF1
:10017000491EFBD270470022F6E710B513460A4627
:1001800004461946FFF7F0FF204610BDF0B480EAA0
:100190000102D40F4200B2EB410F02D202460846E0
:1001A00011464A0042D0C30DDDB2C1F3C752AD1AA9
:1001B000202D35DAC1F3160141F4000204B1524298
:1001C000C5F1200602FA06F12A411044B3EBD05FD4
:1001D00023D0C4B1012DA0EBC35009DCF0BC4FF01B
:1001E000004202EAC352DBB200F5000000F0BDB8E5
:1001F000400000F1807000EBC350A0F1807040EA35
:10020000D170490009E0490841EAC071A0EBC35030
:1002100000F50000400800EBC350F0BC00F09CB8B3
:100220006142012202EB4101001BF6E7F0BC70477E
:1002300081F00041AAE780F00040A7E780EA0102D0
:1002400010B502F00043400022D04A001FD0010E3A
:1002500001EB1261C0F35600C2F3560240F40000F5
:1002600042F40002A0FB022000047F39140400D0F5
:10027000401C50EA124001D44000491EC2B20C0694
:1002800004EBD010401C4008802A02D003E000207C
:1002900010BD20F00100002900DA0020184310BD35
:1002A000C10F80EAE0700844CA079623002100F0DD
:1002B0005CB896230022114600F057B800F00042C7
:1002C00020F00040C10DC0F3160040F400007F296B
:1002D00001DA00207047962903DCC1F19601C8407D
:1002E00001E096398840002AF4D04042704720F05F
:1002F0000040C10DC0F3160040F400007F2901DA70
:1003000000207047962903DCC1F19601C840704770
:100310009639884070470000002801DBC0F100409A
:10032000002901DBC1F100418142704730B50B4625
:10033000014600202022012409E021FA02F59D4215
:1003400005D303FA02F5491B04FA02F52844151EE9
:10035000A2F10102F1DC30BD0029A8BF7047401CAA
:10036000490008BF20F00100704710B4B0FA80FCCB
:1003700000FA0CF050EA010404BF10BC704749B108
:10038000CCF1200421FA04F411FA0CF118BF012178
:1003900021430843A3EB0C01CB1D4FEA00614FEA58
:1003A000102042BF002010BC704700EBC350104427
:1003B0000029A4BF10BC7047401C490008BF20F0B2
:1003C000010010BC70470000064C074D06E0E068D5
:1003D00040F0010394E8070098471034AC42F6D38C
:1003E000FFF7AAFEB0280008D0280008014800F056
:1003F000A2B900004004002070B50446006881687E
:10040000C943C9071CD1816821F00101816000F056
:10041000ADFE05460FE000BF00F0A8FE401B02281D
:1004200009D9A06A40F01000A062E06A40F0010023
:10043000E062012070BD20688068C043C007EBD037
:10044000002070BD10B50146406A826A12F0500F5C
:1004500005D0006A026BBDE8104008461047816A6B
:1004600041F40071816201688968C1F34241072942
:100470000CD1017B51B9816A21F480718162816A5A
:10048000C90403D4816A41F00101816200F050F98E
:1004900010BD10B5406A816A41F040018162C16AB5
:1004A00041F00401C16200F045F910BD10B5406A89
:1004B00000F03FF910BD0000F8B500260446009694
:1004C00000688168C943C90728D0816841F00101EB
:1004D0008160134813490068B0FBF1F000E0401E52
:1004E00000900028FBD100F041FE054611E000BF5E
:1004F00000F03CFE401B02280BD9A06A40F010001F
:10050000A062E06A40F00100E06284F8246001200B
:10051000F8BD20688068C043C007E9D10020F8BD5D
:100520005000002040420F00FEE70000014800F0AC
:1005300081BB00007004002030B590F840500124C9
:10054000AC40C56B6C60046863604368102B036843
:1005500003D099600068C26030BD9A600068C160D5
:1005600030BD704770470000F8B50025044600957F
:1005700090F82400012808D0012084F824002046A7
:10058000FFF73AFF060002D04BE00220F8BDA06A58
:1005900020F4885040F00200A062022000F084FEA7
:1005A00022490968B1FBF0F0400000E0401E0090D5
:1005B0000028FBD12046FFF77FFF2068816841F0CB
:1005C0000801816000F0D2FD074604E000F0CEFD96
:1005D000C01B0A2811D8206880680007F6D420685C
:1005E000816841F00401816000F0C0FD07460EE023
:1005F00000F0BCFDC01B0A2809D9A06A20F0020047
:1006000040F01000A06284F824500120F8BD20685A
:1006100080684007ECD4A06A20F0020040F001009E
:10062000A06284F824503046F8BD0000500000203D
:1006300070470000F8B50024009490F82420254667
:10064000012A12D0012280F824204A681F23072A99
:100650000DD20668776B521E02EB820293409F43D5
:100660000B6893401F43776319E00220F8BD0668CA
:100670000D2A0AD2376BD21F02EB820293409F43AE
:100680000B6893401F43376309E0F76A0D3A02EBAA
:10069000820293409F430B6893401F43F7620A68AE
:1006A000072306680A2A0AD3F7680A3A02EB4202CD
:1006B00093409F438B6893401F43F76008E037697E
:1006C00002EB420293409F438B6893401F43376184
:1006D0000A68102A01D0112A20D1124B02689A42CE
:1006E00017D193681B0219D4936843F400039360F5
:1006F0000968102912D10C490C4A0968B1FBF2F1C2
:1007000001EB8101490000E0491E00910029FBD165
:1007100004E0816A41F020018162012480F82450C4
:100720002046F8BD002401405000002040420F0048
:1007300070477047704710B50446006841688906E5
:1007400026D50168890723D5A16AC90603D4A16A01
:1007500041F40071A1628168C1F34241072910D1BF
:10076000217B71B9416821F020014160A06A20F429
:100770008070A062A06AC00403D4A06A40F00100A7
:10078000A0622046FFF7D4FF21686FF012000860D6
:100790002068416809062ED5016849072BD5A16A52
:1007A000C90603D4A16A41F40051A1628168C1F372
:1007B0000231072909D04168490515D48168C1F380
:1007C0004241072910D1217B71B9416821F0800194
:1007D0004160A06A20F48050A062A06AC00503D4E2
:1007E000A06A40F00100A0622046FFF721FF2168C7
:1007F0006FF00C0008602068416849060DD500685C
:10080000C0070AD0A06A40F48030A062204600F001
:1008100095F821686FF00100086010BD2DE9F041E6
:1008200004004FF000057FD0A06A002628B9E662D8
:1008300084F82460204600F083F82046FFF7DCFDB2
:10084000A16AC90600D420B1A06A40F01000A062DD
:100850006AE0A16A21F4885141F00201A1623349A2
:1008600023688B42E16904D1B1F5402F01D14FF4E7
:100870000021277B4FF4807C41EA470261680A43EC
:10088000A168614508D0012906D0002194F814E040
:10089000BEF1010F02D00AE06146F7E7C7B1A76ACF
:1008A00047F02007A762E76A47F00107E7625F6841
:1008B00027F469470F435F60236899681C4F3940EC
:1008C00011439960A16861450BD0012909D00CE062
:1008D000DFF860E0A7690EEB47370F4347F400618C
:1008E000E5E7218A0D05A5F580152168CB6A23F47B
:1008F00070032B43CB62216889680F4B19409142EA
:1009000008D1E662A16A21F0020141F00101A16271
:10091000BDE8F081A06A20F0020040F01000A06263
:10092000E06A40F00100E0620120F1E7003C014094
:10093000FDF7E1FF00E0FFFFFE0E1FFF7047000024
:1009400070B586B00026054600960196029603967D
:1009500000681E49884236D11D49886940F40070FC
:100960008861886900F400700490886940F0040090
:1009700088618869694600F00400049003200090B3
:100980000190144800F0F0FA144C1348C4E9000632
:100990008020C4E902608000206180006061202026
:1009A000A0610002E061204600F068FA08B1FFF79C
:1009B000D9FD2C6200220E211220656200F042FC5B
:1009C000122000F031FC06B070BD00000024014090
:1009D000001002400008014008000240700400209E
:1009E0002DE9F047894604463B4900683B4F0E1D00
:1009F0009046884201D0B84207D1306810F4702F79
:100A000003D001252846BDE8F08794F8240001288A
:100A10000CD0012084F824002046FFF74DFD05008E
:100A20004FF0000004D084F82400EBE70220EAE74E
:100A3000A16A40F60162914341F48071A16221688C
:100A4000B94218D1326812F4702F14D0A16A41F45F
:100A50008011A1623168490505D5A16A21F40051D0
:100A600041F48051A162A16AC9040AD5E16A21F06A
:100A70000601E16206E0A26A22F48012A2624968DD
:100A8000E9E7E06284F82400216A15488862216A57
:100A90001448C862216A1448086321686FF0020094
:100AA00008602068816841F4807181602168434654
:100AB0004A464C31206A00F01FFA20688168C1F371
:100AC00042410729816803D041F48011816099E790
:100AD00041F4A001FAE70000002401400028014091
:100AE00045040008AD0400089304000870B543797C
:100AF000012B20D00125457102230371066834685B
:100B000002F0100340F6FE729A409443D1E90021AE
:100B10000A439A402243326002681468C021994017
:100B20008C431460026813688B43136005710021C5
:100B30004171084670BD022070BD70B5040003D03D
:100B40002079002510B105E0012070BD65712046B7
:100B500000F008F80220207125610120207100209A
:100B600070BD000000B585B0002100910191029197
:100B7000039100680E49884218D10E48C16941F0BE
:100B80000051C161C16901F000510491816941F0D6
:100B9000040181618069694600F00400049010201E
:100BA000009003200190044800F0DEF905B000BD7C
:100BB00000740040001002400008014018B50468AD
:100BC00000940068104421B11430009003600020AC
:100BD00018BD0830F9E770B54279012A1ED001220C
:100BE0004271022303710468266801F0100302FABF
:100BF00003F52E4326600029016811D00C6804F427
:100C000070153C249C40A54203D14B6843F002037D
:100C10004B60027100214171084670BD022070BD19
:100C20000B68C3F383030F2BF3D14B6843F001032D
:100C3000EEE700002DE9F05FC16B0A6801680B6800
:100C4000046C4FF0040808FA04F8844D844E854F74
:100C5000DFF814C2DFF81492DFF814A2DFF814B240
:100C6000DFF814E218EA020F65D05FEA437862D534
:100C70000A68920603D40A6822F004020A60DFF8C8
:100C8000F0814FF48062016808F114081301140226
:100C9000414524D9A9420DD0B1420FD0B9421AD052
:100CA000614515D0494515D0514501D1120312E0D7
:100CB000594501D104220EE0714501D140220AE0DC
:100CC0006D4D1435A94206D06B4A2832914201D1AC
:100CD0001A4600E022466749091F0A6029E0A94236
:100CE00013D0B14215D0B94220D061451BD049453F
:100CF0001BD0514502D14FF4800217E0414502D18B
:100D00004FF0806212E0594501D104220EE0714596
:100D100001D140220AE0584D1435A94206D0564A66
:100D20002832914201D11A4600E022464B49083947
:100D30004A60C16A71E04FF0020808FA04F818EA44
:100D4000020F70D05FEA83786DD50A68920606D4E8
:100D50000A6822F00A020A60012180F82110DFF8F7
:100D600010814FF40072016808F114081301140295
:100D7000414524D9A9420DD0B1420FD0B9421AD071
:100D8000614515D0494515D0514501D1120312E0F6
:100D9000594501D102220EE0714501D120220AE01D
:100DA000354D1435A94206D0334A2832914201D13B
:100DB0001A4600E022462F49091F0A6029E0A9428D
:100DC00013D0B14215D0B94220D061451BD049455E
:100DD0001BD0514502D14FF4001217E0414502D11A
:100DE0004FF0007212E0594501D102220EE0714528
:100DF00001D120220AE0204D1435A94206D01E4A16
:100E00002832914201D11A4600E02246134908399E
:100E10004A60002180F82010816A00291CD0BDE8BA
:100E2000F05F0847FFE70825A540154214D01A07D0
:100E300012D50A6822F00E020A6090F84020C36BB7
:100E4000012101FA02F25A60816380F82110002129
:100E500080F82010016BE0E7BDE8F09F0800024039
:100E60001C00024030000240440002405800024092
:100E70006C000240080402401C04024030B560B11E
:100E80001A4B026814219A4209D2194B1344B3FB3E
:100E9000F1F18900016417490AE0012030BD134BCC
:100EA0005B421344B3FBF1F1890001640F49083937
:100EB000C163022180F82110136843F6F0718B435F
:100EC000F0E901142143D0E902452C432143046990
:100ED000214344692143846921431943116000215E
:100EE0004163012242770177084630BD0804024081
:100EF000F8FFFDBF0000024070B5044690F82000E6
:100F0000002501280CD0012084F8200094F82160ED
:100F10000020012E06D084F820000225284670BD4E
:100F2000022070BD022684F82160A0632068066854
:100F300026F0010606602046FFF7FEFAE06A002868
:100F40002068016802D041F00E0106E021F00401A2
:100F500001602068016841F00A01016020680168B1
:100F600041F001010160D9E72DE9F84FDFF8C891A0
:100F7000002409F1040A0AF1040B23460F270BF1A0
:100F8000040ED1E00125A54006EA0502AA4276D169
:100F9000DFF8A8C14E68A6EB0C0866452BD00DDC27
:100FA000032E34D005DC36B3012E19D0022E2FD1FA
:100FB0001BE0112E16D0122E2AD119E0B8F5881F89
:100FC00019D006DCB8F5803F15D0B8F5801F1FD1C9
:100FD00011E0B8F5001F0ED0B8F5041F18D10AE0D3
:100FE000CB6815E0CB681B1D12E0CB6808330FE01F
:100FF000CB680C330CE08B682BB1012B4FF008034E
:1010000003D0456104E0042302E0056100E0002311
:10101000FF2A01D8064601E000F104064FEA8405E4
:1010200001D9A5F12005D6F8008007FA05FC28EAC9
:101030000C0803FA05F548EA0508C6F800804D6873
:10104000ED0070D53E4DAE6946F00106AE61AD696A
:1010500024F0030605F0010500953A4D06EB050C5A
:10106000DCF80850A607360F07FA06F825EA080547
:10107000DFF8D480404503D14FF0000825E052E06E
:10108000DFF8C880404502D14FF001081DE0DFF8CD
:10109000C080404502D14FF0020816E0DFF8B4806E
:1010A000404502D14FF003080FE0DFF8AC80404527
:1010B00002D14FF0040808E0DFF8A080404502D1DB
:1010C0004FF0050801E04FF0060808FA06F848EA74
:1010D0000508CCF808804D68D9F80060ED034D464E
:1010E00001D5164300E096432E604D68DAF80060A3
:1010F000AD03554601D5164300E096432E604D687A
:10110000DBF80060ED025D4601D5164300E0964332
:101110002E604D68DEF80060AD02754601D51643BD
:1011200000E096432E60641C0A681646E2407FF495
:1011300029AFBDE8F88F0000000401400000111045
:10114000001002400000014000080140000C014076
:10115000001001400014014000180140001C014033
:101160008068084000D00120704700000148806876
:101170007047000044000020024881680278114452
:101180008160704744000020074810B5016841F0B5
:1011900010010160032000F075F8002000F006F84F
:1011A00000F024F8002010BD0020024070B50D4D65
:1011B00004464FF47A712878B1FBF0F00A490968C7
:1011C000B1FBF0F000F0CCFB48B9102C07D20022A4
:1011D0002146501E00F036F800206C6070BD0120E2
:1011E00070BD000044000020500000200C4808B5ED
:1011F000816941F001018161816901F00101009182
:10120000C16941F08051C161C06900F08050009017
:101210000448416821F0E06141F08061416008BD0F
:101220000010024000000140002809DB00F01F020E
:10123000012191404009800000F1E020C0F8001138
:1012400070470000F0B40E4B1B680C46C3F302233A
:10125000C3F10705042D00D90425191D072901D262
:10126000002300E0DB1E012606FA05F1491E21409D
:1012700099409E40761E16403143F0BC01F064B99F
:101280000CED00E0064900F0070208684FF6FF0386
:10129000184040EA0220034A1043086070470000EB
:1012A0000CED00E00000FA0510B52CA401461DCCA1
:1012B00086B08DE81D002DA02D4C00680490002004
:1012C00004292FD00BDC01292FD0022928D100F0CE
:1012D00071F96168C1F38131491C49001EE0082998
:1012E00020D010291CD161682268D20118D5C1F321
:1012F0008342C9031DF8020009D5616804AAC1F33D
:101300004041515C1B4AB2FBF1F1484301E01A49EC
:1013100048436168490203D440000321B0FBF1F067
:1013200006B010BD00F056F9FAE7226AC2F30121B7
:10133000012903D1920701D5C803F1E7022905D19C
:10134000626A920702D549F64040E9E70329E7D1EE
:1013500021688903E4D54FF22440E1E70203040544
:10136000060708090A0B0C0D0E0F101001020000F1
:101370000010024000127A0000093D002DE9F843F8
:1013800005460078354CC00754D0E0690026C000FF
:1013900008D4E06940F08050E061E069012600F087
:1013A000805000902E480168C90512D4016880461B
:1013B00041F480710160FFF7D9FE074605E000BFE8
:1013C000FFF7D4FEC01B642823D8D8F80000C0055E
:1013D000F6D5206A10F4407021D0A98801F440713C
:1013E00081421CD0206A1F49012220F440700A600B
:1013F00000220A602062C00711D0FFF7B7FE07463F
:1014000041F2883808E000BFFFF7B0FEC11B41453C
:1014100002D90320BDE8F883206A8007F4D5206A4A
:10142000696820F44070084320621EB1E06920F032
:101430008050E0612878800705D56068A96820F4AD
:101440004040084360602878C00605D56068696937
:1014500020F48000084360600020DBE700100240B9
:1014600000700040400442422DE9F0470F4605005D
:1014700061D0434E306800F00700B84209D23068AE
:1014800020F0070038433060306800F00700B842B1
:1014900051D128683B4C810712D5400703D56068BD
:1014A00040F4E06060602878000703D5606840F48D
:1014B000605060606068A96820F0F00008436060D8
:1014C0002878C00728D06868012810D02168022831
:1014D00010D0890700292EDA616821F00301014349
:1014E0006160FFF743FE804641F288390DE02168D4
:1014F0008903EFE78901EDE7FFF738FEA0EB08016C
:10150000494502D90320BDE8F0876068696800F0AA
:101510000C00B0EB810FEFD1306800F00700B8424B
:101520000BD9306820F0070038433060306800F095
:101530000700B84201D00120E5E72878400705D52B
:101540006068E96820F4E06008436060287800077C
:1015500006D56068296920F4605040EAC1006060E7
:1015600000F038F86168084AC1F30311515CC840C3
:101570000649086006480068FFF718FE0020C2E729
:10158000002002400010024098280008500000206F
:10159000480000200448054900684968044AC1F32E
:1015A0000221515CC84070475000002000100240EA
:1015B000A82800080448054900684968044AC1F39E
:1015C000C221515CC840704750000020001002400A
:1015D000A828000812A185B00FC98DE80F0014A03B
:1015E000144A006804905168134801F00C03042B5E
:1015F00010D0082B0ED1C1F38343C9031DF803009B
:101600000AD5516804AAC1F34041515C0A4A5043CB
:10161000B0FBF1F005B0704708494843FAE7000015
:1016200002030405060708090A0B0C0D0E0F101023
:10163000010200000010024000127A0000093D0083
:101640002DE9F84F040070D02078C04DC00749D074
:101650006868C0F38100012807D06868C0F3810082
:10166000022809D16868C00306D52868800339D5E7
:1016700060680028E7D035E06068B0F5803F0BD0A7
:1016800010B1B0F5A02F11D0286820F48030286068
:10169000286820F4802002E0286840F48030286028
:1016A000606890B1FFF762FD06460AE0286840F4E2
:1016B00080202860F0E700BFFFF758FD801B6428FA
:1016C00073D828688003F7D50CE0FFF74FFD064676
:1016D00005E000BFFFF74AFD801B6428F0D82868AA
:1016E0008003F7D420789A4E80074FF001094FF01D
:1016F000000839D5686810F00C0F07D06868C0F38F
:101700008100022809D16868C00306D428688007D0
:1017100014D52069012808D110E02069B0B1C6F8BD
:101720000090FFF723FD074605E00AE1FFF71EFDE5
:10173000C01B0228C4D828688007F7D528686169CB
:1017400020F0F80040EAC10028600DE0C6F80080F3
:10175000FFF70CFD074604E0FFF708FDC01B022859
:1017600023D828688007F7D4207800072CD579483B
:10177000A169D9B1C0F80090FFF7F8FC074604E072
:10178000FFF7F4FCC01B02280FD8686A8007F7D562
:1017900071484FF4FA510068B0FBF1F0009000BFBF
:1017A0000098411E0091FAD20EE080E0C0F800805F
:1017B000FFF7DCFC074604E0FFF7D8FCC01B02285B
:1017C00075D8686A8007F7D42078400760D5E86943
:1017D0000027C00008D4E86940F08050E861E8695B
:1017E000012700F0805000905C480168C90513D4BF
:1017F0000168834641F480710160FFF7B7FC8246BF
:1018000006E000BFFFF7B2FCA0EB0A0064284ED848
:10181000DBF80000C005F5D5E06801280AD008B162
:10182000052813D0286A20F001002862286A20F0D9
:10183000040002E0286A40F001002862E06841F2FA
:10184000883B98B1FFF792FC82460BE0286A40F093
:1018500004002862EEE700BFFFF788FCA0EB0A0156
:1018600059455AD8286A8007F6D50CE0FFF77EFC68
:10187000824605E0FFF77AFCA0EB0A0159454CD8F7
:10188000286A8007F6D41FB1E86920F08050E8612B
:10189000E06988B36968C1F38101022944D0022854
:1018A000C6F8608004D0FFF761FC044638E034E0FD
:1018B000FFF75CFC074604E0FFF758FCC01B02285A
:1018C0002BD828688001F7D4206AB0F5803F05D175
:1018D0006868A16820F4003008436860D4E9080112
:1018E0000843696821F4741108436860C6F8609081
:1018F000FFF73CFC044606E025E000BFFFF736FC9E
:10190000001B022809D828688001F7D51BE000BF1A
:10191000FFF72CFC001B022802D90320BDE8F88F3A
:1019200028688001F4D40EE00128F7D06868226AA4
:1019300000F48031914204D1616A00F47010884251
:1019400001D00120EAE70020E8E700000010024093
:1019500000004242800442425000002000700040DB
:1019600010B5401EB0F1807F01D3012010BD4FF0B3
:10197000E02460610F21601700F0E6FD0020A06107
:1019800007202061002010BD7047704770B590F8A7
:101990003C20012A19D0012400F83C4F0222427059
:1019A00050F83C3C5A689D6822F070060A68496805
:1019B000324325F0800529435A6050F83C2C916051
:1019C000447000210170084670BD022070BD10B542
:1019D000040003D094F83D0010B107E0012010BDD1
:1019E000002084F83C00204600F00CF8022084F827
:1019F0003D00211D206800F08BFC012084F83D0093
:101A0000002010BD08B501681448B1F1804F14D012
:101A1000134A914220D1C16941F00201C161C069FC
:101A2000002200F0020000900F211D20FFF70AFCA9
:101A30001D20BDE80840FFF7F7BBC16941F0010177
:101A4000C161C069002200F00100009011461C2015
:101A5000FFF7F8FB1C20ECE708BD00000010024077
:101A6000000400400168CA6842F00102CA600068D0
:101A7000816801F00701062903D0016841F00101E6
:101A800001600020704770B5044690F83C000128C2
:101A900017D0012584F83C50022084F83D002068CE
:101AA000826822F0770222F47F4282600868502820
:101AB00030D00DDC20284DD005DC98B310283BD168
:101AC00048E0022070BD302844D0402834D139E0AD
:101AD000602828D0702806D0B0F5805F2CD0B0F5F3
:101AE000005F29D10AE0CB68D1E90121206800F02C
:101AF00055FC2068816841F0770109E0CB68D1E9A5
:101B00000121206800F04AFC2068816841F480418E
:101B1000816011E0CA684968206800F051FC5021DA
:101B2000206807E016E0CA684968206800F059FCA0
:101B30006021206800F03CFC84F83D50002084F8CF
:101B40003C0070BDCA684968206800F039FC40213B
:101B50002068EFE7226801461046EBE7704770B552
:101B60000446006801694FF00005C943890715D490
:101B7000C168C943890711D4E91E0161012020779A
:101B8000206880698007204602D0FFF7E7FF04E065
:101B900000F098F8204600F096F825772068016953
:101BA000C943490717D4C168C943490713D46FF023
:101BB00004010161022020772068806910F4407FD1
:101BC000204602D0FFF7CAFF04E000F07BF8204671
:101BD00000F079F8257720680169C943090716D410
:101BE000C168C943090712D46FF0080101610420DC
:101BF00020772068C0698007204602D0FFF7AEFF3B
:101C000004E000F05FF8204600F05DF825772068DA
:101C10000169C943C90617D4C168C943C90613D4A9
:101C20006FF010010161082020772068C06910F46E
:101C3000407F204602D0FFF791FF04E000F042F819
:101C4000204600F040F8257720680169C943C9079C
:101C500008D1C168C943C90704D1891E0161204662
:101C600000F032F820680169C943090609D4C16847
:101C7000C943090605D46FF0800101612046FFF7D2
:101C800083FE20680169C943490609D4C168C94374
:101C9000490605D46FF040010161204600F0FCF8D0
:101CA00020680169C94389060BD4C168C943890604
:101CB00007D46FF0200101612046BDE87040FFF7B6
:101CC00064BE70BD70477047F8B505465548564C20
:101CD00085426FD1022204F118015448FEF780FEBC
:101CE000A088012812D0022813D0032814D0042879
:101CF00015D0052816D0062817D0072818D0082890
:101D000019D009281AD0E0B160691DE04FF4E170E4
:101D100019E04FF44D7016E040F2A64013E040F297
:101D2000096010E040F26C700DE040F6E1000AE05E
:101D30004FF4256007E040F6B83004E040F6D540A7
:101D400001E040F6B6506061FEF7AAFA364E203642
:101D50007060304600F022FDA06035490027E06049
:101D6000B0F5000F5BDB884200DB0846E060FEF761
:101D7000BEFA0346002211462E48FEF71FFF2A48EE
:101D80002D4A18302188006822F811002269491C68
:101D90001044206188B22080B0F5FA7F00D32780FC
:101DA00000F044FD6080FEF784FAB0600021214815
:101DB000FEF711FF2148854230D100F049FDA08097
:101DC000E068FEF77BFAFF2501462B462A461CA059
:101DD000009500F0A9FBE068FEF770FA152690FB6D
:101DE000F6F1FF231A461AA0009500F09DFBFF2391
:101DF00000951A4661881BA000F096FB6088FF23BF
:101E0000B0FBF6F11A461BA0009500F08DFBFF23F6
:101E100000951A461CA0616900F086FBF8BD002001
:101E2000A4E7000008050020000000204004002076
:101E300000007A45B404002058000020C8040020A7
:101E40006E302E76616C3D25642563256325630025
:101E500061646420312C302C25642563256325635F
:101E6000000000006E322E76616C3D2564256325EE
:101E70006325630061646420352C302C2564256360
:101E800025632563000000006E312E76616C3D25D0
:101E90006425632563256300704770B5040004D092
:101EA00094F83900002510B106E0012070BD84F8D7
:101EB0003850204600F022F8242084F839002068A9
:101EC000C16821F40051C160204600F09DFA2068ED
:101ED000016921F4904101612068416921F02A01E2
:101EE00041612068C16841F40051C160E563202070
:101EF00084F8390084F83A00002070BD30B585B010
:101F000000240094019402940394006814498842C8
:101F100023D11448C16941F40031C161C16901F4A0
:101F200000310491816941F00401816180690E4DA5
:101F300000F004000490042000900220019003208F
:101F4000039069462846FFF70FF80820CDE9000402
:101F5000694628460294FFF707F805B030BD000037
:101F60000044004000100240000801402DE9F84301
:101F7000044690F839001F4616460D46202850D1D9
:101F8000A5B19EB194F8380001284AD0012084F808
:101F900038004FF00008C4F83C80212084F8390054
:101FA000FFF7E4F8A6848146E68426E00120BDE838
:101FB000F883E08C401EE084A0684B46B0F5805F5B
:101FC0004FF000024FF080012046009703D000F050
:101FD00077FAE8B90DE000F073FAC8B928882168EB
:101FE000C0F308004860206908B16D1C05E0AD1C15
:101FF00003E0216815F8010B4860E08C0028D8D177
:102000004B46002240212046009700F059FA08B1C3
:102010000320CCE7202084F8390084F838800020A1
:10202000C5E70220C3E7FEE73EB50024164800944A
:102030000194144902940160891581600473047548
:10204000022505614FF460214460C161FEF7E6FBA3
:1020500008B1FEF787FA009401240520CDE901407C
:1020600069460948FEF7E6FA08B1FEF77BFA6946C9
:102070000548CDE90045FEF7DDFA002801D0FEF75E
:1020800071FA3EBD00240140400400201CB500242C
:102090000C4900940A48019408600846FEF74DFD7B
:1020A00008B1FEF75FFA00940022694605480194E2
:1020B000FEF71CFD002801D0FEF754FA1CBD0000FD
:1020C00000740040B4040020094808B5416941F09B
:1020D000010141614069002200F0010000900E21E1
:1020E0000B20FFF7AFF8BDE808400B20FFF79CB8C6
:1020F0000010024000B585B00020019002900390CE
:102100000C48816941F040018161816901F0400121
:102110000491816941F0040181618069694600F0A0
:1021200004000490552000900348FEF71DFF05B001
:1021300000BD0000001002400018014010B586B03C
:1021400000241748009401940294039404944FF0DF
:1021500080410594016040F2D921C0E9011440F2A8
:10216000E731C0E903148461FFF731FC08B1FEF7E1
:10217000F9F94FF48050009069460948FFF783FC55
:1021800008B1FEF7EFF9049404A905480594FFF798
:10219000FDFB002801D0FEF7E5F906B010BD0000F8
:1021A000C804002010B586B000241648009401949D
:1021B0000294039404941249059401604821C0E9F3
:1021C00001143121C0E903148461FFF700FC08B158
:1021D000FEF7C8F94FF48050009069460948FFF7B0
:1021E00052FC08B1FEF7BEF9049404A90548059411
:1021F000FFF7CCFB002801D0FEF7B4F906B010BD04
:1022000000040040080500200C4810B50A49016090
:102210004FF4E1314160002181600C22C160C0E9CE
:1022200004128161C161FFF738FE002803D0BDE8C8
:102230001040FEF797B910BD00440040480500204B
:10224000FEE7704770477047FEF796BF30B595B010
:1022500028216846FDF78FFF14210AA8FDF78BFFA0
:1022600018210FA8FDF787FF01210804CDE9001010
:102270000024029402250491CDE907504FF4E010A8
:1022800009906846FFF7DCF90F20CDE90A056802DE
:10229000CDE90C4002210AA80E94FFF7E5F8A80347
:1022A00011900F950FA8FFF769F815B030BD000029
:1022B0000D48016841F00101016041680B4A11407D
:1022C000416001680A4A11400160016821F48021DF
:1022D0000160416821F4FE0141604FF41F018160FB
:1022E0000449C00308607047001002400000FFF876
:1022F000FFFFF6FE08ED00E00148FFF730BC0000EC
:10230000C80400200148FFF72ABC0000080500208F
:10231000F0B502681C4B1D4D1D4E1E4F1E4C4FF05C
:10232000804C984209D0A04207D0604505D0A84211
:1023300003D0B04201D0B84204D122F0700E4A68F6
:1023400042EA0E02984209D0A04207D0604505D06B
:10235000A84203D0B04201D0B84203D122F4407564
:10236000CA682A434D6922F080022A4302608A68C3
:10237000C2620A688262984201D0A04201D1096912
:10238000016301214161F0BD002C014000040040C7
:1023900000080040000C00400034014010B5846883
:1023A00042EA032224F47F440A432243826010BDA0
:1023B000826822F070020A4342F007018160704790
:1023C00010B5036A046A24F001040462846924F0ED
:1023D000F00444EA021423F00A020A438461026210
:1023E00010BD10B5036A23F0100303628369046A09
:1023F00023F4704343EA023224F0A00343EA0111BC
:102400008261016210BD00002DE9F04104460068C0
:102410000169E26821F44051114301612169A0681A
:102420000843616908432168CA6841F20C639A4312
:102430000243CA6020684169A26921F440711143D6
:1024400041611E49206864253226884202D1FFF787
:10245000B1F801E0FFF79EF800EBC00101EB0011BD
:1024600060686FF018078000B1FBF0F2B2FBF5F284
:10247000B1FBF0F37A4303EB8202B1FBF0F306EB1E
:102480000212B2FBF5F2B3FBF5F302F0F00202EB3D
:102490000312B1FBF0F3B1FBF0F0B0FBF5F07843C1
:1024A00003EB800006EB0010B0FBF5F0216800F0B4
:1024B0000F0010448860BDE8F08100000038014042
:1024C0002DE9F041984617460E460446069D1DE04C
:1024D000681C1BD02DB1FEF749FEA0EB0800A842F6
:1024E00014D92068C16821F4D071C16020684169A5
:1024F00021F001014161202084F8390084F83A007C
:10250000002084F838000320BDE8F08120680068CE
:1025100036EA000004D00020B842D9D00020F3E70A
:102520000120F9E7FEE700000FB4054B10B503A941
:10253000044A029800F028F810BC5DF814FB000073
:1025400041270008540000200907090E002804DB79
:1025500000F1E02080F80014704700F00F0000F157
:10256000E02080F8141D704702E008C8121F08C15F
:10257000002AFAD170477047002001E001C1121F04
:10258000002AFBD1704700002DE9FF4F8BB09A461F
:102590000F460546002606E025280BD052460D9929
:1025A00090476D1C761C28780028F5D10FB0304676
:1025B000BDE8F08F0024A0460122604900E00443FA
:1025C00015F8013F203B02FA03F00842F7D12878C2
:1025D0002E2817D115F8010F44F004042A280ED034
:1025E0006FF02F022878A0F1300109290AD808EBF2
:1025F000880102EB410100EB01086D1CF2E757F87E
:10260000048B6D1C287869283ED006DC0028CDD0CC
:1026100063280BD0642804D136E0732810D07528C5
:102620004BD052460D999047761C85E017F8040B65
:102630008DF8000000208DF80100E946012003E03C
:1026400057F8049B4FF0FF3061074FF0000401D4AE
:102650000AE0641C44450DDA8442FADB19F80410E0
:102660000029F6D106E0641C8442FCDB19F8041052
:102670000029F8D1264404E019F8010B52460D99BF
:102680009047641EF8D257E001CF4FF00A0B0028A4
:1026900002DA40422D2102E0210504D52B218DF8DC
:1026A0002410012103E0E10705D02021F7E70DF117
:1026B000200908910CE00021F9E701CF4FF00A0B47
:1026C000F9E75946FDF732FE01F1300209F8012D14
:1026D0000028F6D1ADEB090000F1200B600701D412
:1026E0004FF00108D84502DDA8EB0B0000E0002008
:1026F0008046002406E009A85246005D0D999047E7
:10270000641C761C08988442F5DB04E030205246B5
:102710000D999047761CB8F10001A8F10108F5DC8D
:1027200005E019F8010B52460D999047761CBBF154
:102730000001ABF1010BF4DC6D1C34E7092801004A
:1027400013B54FF6FF73012269460248FFF70EFCEE
:1027500000981CBD48050020FEF716FDFFF776FD2A
:10276000FFF7C8FCFFF7B0FCFFF75EFCFFF78EFC3D
:10277000FFF718FDFFF748FDFFF7E0FC0448FFF7FF
:1027800071F90448FFF76EF90348FDF7EDFEFEE727
:1027900008050020C8040020400400202DE9F04175
:1027A0000446D4E90101FDF743FD0546A061294631
:1027B000206AFDF7EBFC206206462846E169FDF73A
:1027C00037FD01466069FDF739FD0746314620694E
:1027D000FDF734FD06462946E068FDF72FFD31463A
:1027E000FDF7D4FC3946FDF7D1FC054620682946A3
:1027F00080F00040FDF790FD01D2284602E02068FD
:1028000080F000402168FDF787FD20680AD280F043
:1028100000402946FDF780FD01D2284602E02068ED
:1028200080F00040A169E161BDE8F08107480649F8
:10283000028831F812100269511A01614FF4FA70DE
:10284000B1FBF0F080B2704758000020000000207B
:1028500070B5104D002440212846FEF781FC012868
:1028600000D1012410212846FEF77AFC012800D16E
:10287000A41C04212846FEF773FC012800D1241D66
:1028800001212846FEF76CFC012800D108342046BF
:1028900070BD0000001801400000000000000000B2
:1028A00001020304060708090000000001020304F6
:1028B000D02800080000002058000000682500080B
:1028C0002829000858000020300900007825000859
:1028D00000000000000000000000000000000000F8
:1028E00000000000000000000000000000000000E8
:1028F00000007A450000000000000000A69BC43BD9
:102900005839B43BCDCCCC3E0000000000000000A4
:1029100000000000010000001000000000000000A6
:082920000024F4000000000097
:0400000508000131BD
:00000001FF
